{
  "_format": "hh-sol-artifact-1",
  "contractName": "PlonkVerifier",
  "sourceName": "contracts/PlonkVerifier.sol",
  "abi": [
    {
      "inputs": [
        {
          "internalType": "uint256[24]",
          "name": "_proof",
          "type": "uint256[24]"
        },
        {
          "internalType": "uint256[2]",
          "name": "_pubSignals",
          "type": "uint256[2]"
        }
      ],
      "name": "verifyProof",
      "outputs": [
        {
          "internalType": "bool",
          "name": "",
          "type": "bool"
        }
      ],
      "stateMutability": "view",
      "type": "function"
    }
  ],
  "bytecode": "0x608060405234801561001057600080fd5b50611d86806100206000396000f3fe608060405234801561001057600080fd5b506004361061002b5760003560e01c8063c0e9d81c14610030575b600080fd5b61004a60048036038101906100459190611cd8565b610060565b6040516100579190611d35565b60405180910390f35b6000611c1b565b600080600184846000805b821561009c5782840591508482028603905084955080945082820284039050829350809250610072565b60018411156100aa57600080fd5b60008612156100b95788860195505b85965050505050505092915050565b60405181602084028301815160208301925060005b82841015610120578185527f30644e72e131a029b85045b68181585d2833e84879b9709143e1f593f00000018451830991506020850194506020840193506100dd565b61014a7f30644e72e131a029b85045b68181585d2833e84879b9709143e1f593f000000183610067565b91506020850394506020840393508592505b828411156101c6577f30644e72e131a029b85045b68181585d2833e84879b9709143e1f593f00000018551830990507f30644e72e131a029b85045b68181585d2833e84879b9709143e1f593f000000184518309915080845260208503945060208403935061015c565b81845250505050505050565b7f30644e72e131a029b85045b68181585d2833e84879b9709143e1f593f00000018110610203576000805260206000f35b50565b610212610244356101d2565b61021e610264356101d2565b61022a610284356101d2565b6102366102a4356101d2565b6102426102c4356101d2565b61024e6102e4356101d2565b565b6000806040517f2b91e580413e4d07d9e3ce339e0e3b08125e4dc5de035d2d477d0dc618b863a481527f09b3f3b26663426a447c5ce06ea0460c3848d0e3eac220f1619038b3cc4f59c560208201527f295d5494d77cfdc87b5f2e91ed5e44b37bf2c9ddfb303902ccc7f17e322a51b960408201527f0cf404a4e23ae7c7bd7f2ef8487ced4433fbac34b86234f1caed373aa797f18760608201527f1abcc81ef229d51dcf6235920e8d0bb14a022c4390b973a4f9b63a9f7b43f9db60808201527f239d8a5fe0d9b80f319587e0546c800d775493734765bbaf2a1aee5645713ce260a08201527f0d10fc3ec8996fba1bf7b93d63014fd75cc275365960b4af27887c5e3483e74960c08201527f2fd1fd108c87ec9a641cadd5839af206e3adc4ccc66710626e69ee326ff7c39660e08201527f2e2dd6324f1f97be8a570e0cdbe3ae68e1516828a953774067b8e17aa1ffa2db6101008201527f20d91adec2cda0095a3b055e3d5e7f587d93a8dbe45b68dffbe61a01e06173f26101208201527f0fce0a980f48d33af9879df11516b4fb9a7c234c8fe40db8f25bcdd2d3e1e0596101408201527f268050b5ca7d9d6b1feabe4d406c8b5ba04fe4a58835beb5c9b558ae62a0da046101608201527f243dd492f1c4cea72ad921a5881fd8d12749e0ca84edda17901ed2b026566f476101808201527f1641d2eed26767649feb4ce2f189b5e93718cbf4bcd84d57abbb54ce95b827866101a08201527f0b6b37fb71b58e66e536cd5ad561f5e8699892481e30a17122ce35b2dfa77ebf6101c08201527f1aae338fc22b6bbf6c79337fac79200f1209b579fc33b2f0a4734d24e966ac6d6101e0820152600085013561020082015260208501356102208201526004356102408201526020600401356102608201526044356102808201526020604401356102a08201526084356102c08201526020608401356102e08201527f30644e72e131a029b85045b68181585d2833e84879b9709143e1f593f000000161030082200692508260208501527f30644e72e131a029b85045b68181585d2833e84879b9709143e1f593f0000001602080860120066040850152602084015181526040840151602082015260c4356040820152602060c4013560608201527f30644e72e131a029b85045b68181585d2833e84879b9709143e1f593f0000001608082200691508160008501527f30644e72e131a029b85045b68181585d2833e84879b9709143e1f593f00000018283096102c08501528181526101043560208201526020610104013560408201526101443560608201526020610144013560808201526101843560a08201526020610184013560c08201527f30644e72e131a029b85045b68181585d2833e84879b9709143e1f593f000000160e082200691508160608501528181526102443560208201526102643560408201526102843560608201526102a43560808201526102c43560a08201526102e43560c08201527f30644e72e131a029b85045b68181585d2833e84879b9709143e1f593f000000160e08220068060c08601527f30644e72e131a029b85045b68181585d2833e84879b9709143e1f593f000000183850960a08601527f30644e72e131a029b85045b68181585d2833e84879b9709143e1f593f000000183840992507f30644e72e131a029b85045b68181585d2833e84879b9709143e1f593f000000183840992507f30644e72e131a029b85045b68181585d2833e84879b9709143e1f593f000000183840992507f30644e72e131a029b85045b68181585d2833e84879b9709143e1f593f000000183840992507f30644e72e131a029b85045b68181585d2833e84879b9709143e1f593f000000183840992507f30644e72e131a029b85045b68181585d2833e84879b9709143e1f593f000000183840992507f30644e72e131a029b85045b68181585d2833e84879b9709143e1f593f000000183840992507f30644e72e131a029b85045b68181585d2833e84879b9709143e1f593f000000183840992507f30644e72e131a029b85045b68181585d2833e84879b9709143e1f593f000000183840992507f30644e72e131a029b85045b68181585d2833e84879b9709143e1f593f000000183840992507f30644e72e131a029b85045b68181585d2833e84879b9709143e1f593f000000183840992507f30644e72e131a029b85045b68181585d2833e84879b9709143e1f593f000000183840992508260808601527f30644e72e131a029b85045b68181585d2833e84879b9709143e1f593f0000001806001850301069250826102e0860152826103008601527f30644e72e131a029b85045b68181585d2833e84879b9709143e1f593f000000181820992508260e08601527f30644e72e131a029b85045b68181585d2833e84879b9709143e1f593f00000018184099250826101008601527f30644e72e131a029b85045b68181585d2833e84879b9709143e1f593f00000018184099250826101208601527f30644e72e131a029b85045b68181585d2833e84879b9709143e1f593f00000018184099250826101408601526101c435825260206101c4013560208301526102043560408301526020610204013560608301527f30644e72e131a029b85045b68181585d2833e84879b9709143e1f593f00000016080832006610160860152505050505050565b60017f30644e72e131a029b85045b68181585d2833e84879b9709143e1f593f0000001807f30644e72e131a029b85045b68181585d2833e84879b9709143e1f593f0000001836060860151030106611000096103208301527f30644e72e131a029b85045b68181585d2833e84879b9709143e1f593f00000017f0931d596de2fd10f01ddd073fd5a90a976f169c76f039bb91c4775720042d43a820990507f30644e72e131a029b85045b68181585d2833e84879b9709143e1f593f0000001807f30644e72e131a029b85045b68181585d2833e84879b9709143e1f593f000000183606086015103010661100009610340830152610afd600361030084016100c8565b6102e0820151600191507f30644e72e131a029b85045b68181585d2833e84879b9709143e1f593f000000181610320850151096103208401527f30644e72e131a029b85045b68181585d2833e84879b9709143e1f593f00000017f0931d596de2fd10f01ddd073fd5a90a976f169c76f039bb91c4775720042d43a830991507f30644e72e131a029b85045b68181585d2833e84879b9709143e1f593f00000018082610340860151098309610340840152505050565b60007f30644e72e131a029b85045b68181585d2833e84879b9709143e1f593f0000001807f30644e72e131a029b85045b68181585d2833e84879b9709143e1f593f00000016000860135610320860151098303010690507f30644e72e131a029b85045b68181585d2833e84879b9709143e1f593f0000001807f30644e72e131a029b85045b68181585d2833e84879b9709143e1f593f000000160208601356103408601510983030106905080610180830152505050565b6101808101517f30644e72e131a029b85045b68181585d2833e84879b9709143e1f593f00000016102c0830151610320840151097f30644e72e131a029b85045b68181585d2833e84879b9709143e1f593f0000001806102a43560208601510961024435087f30644e72e131a029b85045b68181585d2833e84879b9709143e1f593f00000016040850151820890507f30644e72e131a029b85045b68181585d2833e84879b9709143e1f593f0000001806102c43560208701510961026435087f30644e72e131a029b85045b68181585d2833e84879b9709143e1f593f00000016040860151820890507f30644e72e131a029b85045b68181585d2833e84879b9709143e1f593f0000001604086015161028435087f30644e72e131a029b85045b68181585d2833e84879b9709143e1f593f0000001817f30644e72e131a029b85045b68181585d2833e84879b9709143e1f593f0000001848609097f30644e72e131a029b85045b68181585d2833e84879b9709143e1f593f00000016102e435820990507f30644e72e131a029b85045b68181585d2833e84879b9709143e1f593f00000016000880151820990507f30644e72e131a029b85045b68181585d2833e84879b9709143e1f593f000000180867f30644e72e131a029b85045b68181585d2833e84879b9709143e1f593f0000001030687087f30644e72e131a029b85045b68181585d2833e84879b9709143e1f593f000000180837f30644e72e131a029b85045b68181585d2833e84879b9709143e1f593f0000001030682089050806101a08901525050505050505050565b81518152602082015160208201525050565b818152826020820152505050565b81358152602082013560208201525050565b6040518151815260208201516020820152825160408201526020830151606082015260408260808360066107d05a03fa80610f2e576000805260206000f35b50505050565b600060405183815284602082015285604082015260408160608360076107d05a03fa915081610f67576000805260206000f35b825160408201526020830151606082015260408360808360066107d05a03fa915081610f97576000805260206000f35b505050505050565b600060405183815284602082015285604082015260408360608360076107d05a03fa915081610fd2576000805260206000f35b505050505050565b610feb836020840151845184610f9f565b505050565b6101c08101604082015160405161010081016040526110507f20d91adec2cda0095a3b055e3d5e7f587d93a8dbe45b68dffbe61a01e06173f27f2e2dd6324f1f97be8a570e0cdbe3ae68e1516828a953774067b8e17aa1ffa2db85610ecf565b6110c57f30644e72e131a029b85045b68181585d2833e84879b9709143e1f593f00000016102643561024435097f09b3f3b26663426a447c5ce06ea0460c3848d0e3eac220f1619038b3cc4f59c57f2b91e580413e4d07d9e3ce339e0e3b08125e4dc5de035d2d477d0dc618b863a486610f34565b611114610244357f0cf404a4e23ae7c7bd7f2ef8487ced4433fbac34b86234f1caed373aa797f1877f295d5494d77cfdc87b5f2e91ed5e44b37bf2c9ddfb303902ccc7f17e322a51b986610f34565b611163610264357f239d8a5fe0d9b80f319587e0546c800d775493734765bbaf2a1aee5645713ce27f1abcc81ef229d51dcf6235920e8d0bb14a022c4390b973a4f9b63a9f7b43f9db86610f34565b6111b2610284357f2fd1fd108c87ec9a641cadd5839af206e3adc4ccc66710626e69ee326ff7c3967f0d10fc3ec8996fba1bf7b93d63014fd75cc275365960b4af27887c5e3483e74986610f34565b60a08401517f30644e72e131a029b85045b68181585d2833e84879b9709143e1f593f0000001837f30644e72e131a029b85045b68181585d2833e84879b9709143e1f593f0000001836102443508087f30644e72e131a029b85045b68181585d2833e84879b9709143e1f593f0000001847f30644e72e131a029b85045b68181585d2833e84879b9709143e1f593f000000180600286096102643508087f30644e72e131a029b85045b68181585d2833e84879b9709143e1f593f0000001857f30644e72e131a029b85045b68181585d2833e84879b9709143e1f593f000000180600387096102843508087f30644e72e131a029b85045b68181585d2833e84879b9709143e1f593f000000160008901517f30644e72e131a029b85045b68181585d2833e84879b9709143e1f593f0000001837f30644e72e131a029b85045b68181585d2833e84879b9709143e1f593f000000186880909097f30644e72e131a029b85045b68181585d2833e84879b9709143e1f593f00000016102c08a01516103208b01510961134760c460c08901610edd565b6113a07f30644e72e131a029b85045b68181585d2833e84879b9709143e1f593f00000016101608c01517f30644e72e131a029b85045b68181585d2833e84879b9709143e1f593f00000018486080860c0890189610fda565b7f30644e72e131a029b85045b68181585d2833e84879b9709143e1f593f0000001887f30644e72e131a029b85045b68181585d2833e84879b9709143e1f593f0000001806102a43560208f01510961024435080894507f30644e72e131a029b85045b68181585d2833e84879b9709143e1f593f0000001887f30644e72e131a029b85045b68181585d2833e84879b9709143e1f593f0000001806102c43560208f01510961026435080893507f30644e72e131a029b85045b68181585d2833e84879b9709143e1f593f00000016102e4357f30644e72e131a029b85045b68181585d2833e84879b9709143e1f593f000000160208d015160008e0151090992506115357f30644e72e131a029b85045b68181585d2833e84879b9709143e1f593f0000001847f30644e72e131a029b85045b68181585d2833e84879b9709143e1f593f0000001878909097f1aae338fc22b6bbf6c79337fac79200f1209b579fc33b2f0a4734d24e966ac6d7f0b6b37fb71b58e66e536cd5ad561f5e8699892481e30a17122ce35b2dfa77ebf60408b01610f9f565b61154461010460808901610edd565b61156060808b0151602061014401356101443560808b01610f34565b7f30644e72e131a029b85045b68181585d2833e84879b9709143e1f593f000000160808b015160808c0151096115a481602061018401356101843560808c01610f34565b6115c06102e08c015160a08a015160808b015160808c01610f9f565b7f30644e72e131a029b85045b68181585d97816a916871ca8d3c208c16d87cfd47602060408a0101517f30644e72e131a029b85045b68181585d97816a916871ca8d3c208c16d87cfd470306602060408a0101527f30644e72e131a029b85045b68181585d97816a916871ca8d3c208c16d87cfd4760a08901517f30644e72e131a029b85045b68181585d97816a916871ca8d3c208c16d87cfd47030660a089015261166c888b610eef565b611679604089018b610eef565b611686608089018b610eef565b5050505050505050505050565b61020081016116a66101c0830182610ebd565b6116bd60c083015160206004013560043584610f34565b6116d460e083015160206044013560443584610f34565b6116ec61010083015160206084013560843584610f34565b61173d6101208301517f268050b5ca7d9d6b1feabe4d406c8b5ba04fe4a58835beb5c9b558ae62a0da047f0fce0a980f48d33af9879df11516b4fb9a7c234c8fe40db8f25bcdd2d3e1e05984610f34565b61178e6101408301517f1641d2eed26767649feb4ce2f189b5e93718cbf4bcd84d57abbb54ce95b827867f243dd492f1c4cea72ad921a5881fd8d12749e0ca84edda17901ed2b026566f4784610f34565b5050565b7f30644e72e131a029b85045b68181585d2833e84879b9709143e1f593f00000016101a08201517f30644e72e131a029b85045b68181585d2833e84879b9709143e1f593f000000103067f30644e72e131a029b85045b68181585d2833e84879b9709143e1f593f00000018060c08401516102443509820890507f30644e72e131a029b85045b68181585d2833e84879b9709143e1f593f00000018060e08401516102643509820890507f30644e72e131a029b85045b68181585d2833e84879b9709143e1f593f0000001806101008401516102843509820890507f30644e72e131a029b85045b68181585d2833e84879b9709143e1f593f0000001806101208401516102a43509820890507f30644e72e131a029b85045b68181585d2833e84879b9709143e1f593f0000001806101408401516102c43509820890507f30644e72e131a029b85045b68181585d2833e84879b9709143e1f593f0000001806101608401516102e435098208905061191281600260016102408601610f9f565b5050565b6000604051610240810160405261018081016101c08201610200830161193e6101c484610edd565b61194a61020483610edd565b61195a6101608701518386610fda565b6119648385610eef565b7f30644e72e131a029b85045b68181585d97816a916871ca8d3c208c16d87cfd4760208501517f30644e72e131a029b85045b68181585d97816a916871ca8d3c208c16d87cfd47030660208501527f2d7d72a6857a06863b1cac1fa35d70145479208419ea5d71de7720b396054fba60408501527f28ededf3c7e95c09916fbc4e3f458063218bed20d05849109077d082ff7022b960608501527f22940f258d3b8d0f1b310c0c7c2a45363252c5950466c589652c5c8c18cfc9f660808501527f11fbdc0ba5fe74d97d36ffb5bc375e8d7d37da969f17b27390d39c71898b28c460a0850152611a5c60608701518460c08701610fda565b7f30644e72e131a029b85045b68181585d2833e84879b9709143e1f593f00000016060870151610160880151097f30644e72e131a029b85045b68181585d2833e84879b9709143e1f593f00000017f0931d596de2fd10f01ddd073fd5a90a976f169c76f039bb91c4775720042d43a82099050611ada818484610fda565b611ae78260c08701610eef565b611af8610200880160c08701610eef565b7f30644e72e131a029b85045b68181585d97816a916871ca8d3c208c16d87cfd476020610240018801517f30644e72e131a029b85045b68181585d97816a916871ca8d3c208c16d87cfd470306602061024001880152611b5f610240880160c08701610eef565b7f198e9393920d483a7260bfb731fb5d25f1aa493335a9e71297e485b7aef312c26101008601527f1800deef121f1e76426a00665e5c4479674322d4f75edadd46debd5cd992f6ed6101208601527f090689d0585ff075ec9e99ad690c3395bc4b313370b38ef355acdadcd122975b6101408601527f12c85ea5db8c6deb4aab71808dcb408fe3d1e7690c43d37b4ce6cc0166fa7daa6101608601526020856101808760086107d05a03fa855181169650505050505050919050565b6040516103608101604052611c2e610206565b611c388382610250565b611c41816109fa565b611c4b8382610bb3565b611c5481610c6b565b611c5d81610ff0565b611c6681611693565b611c6f81611792565b611c7881611916565b61036082036040528060005260206000f35b600080fd5b600080fd5b600081905082602060180282011115611cb057611caf611c8f565b5b92915050565b600081905082602060020282011115611cd257611cd1611c8f565b5b92915050565b6000806103408385031215611cf057611cef611c8a565b5b6000611cfe85828601611c94565b925050610300611d1085828601611cb6565b9150509250929050565b60008115159050919050565b611d2f81611d1a565b82525050565b6000602082019050611d4a6000830184611d26565b9291505056fea26469706673582212200a57e987f1dbf42b5b8e6894a90ef92991e9970d9755f8fe3a851637830fdba964736f6c63430008180033",
  "linkReferences": {},
  "deployedLinkReferences": {}
}