{
  "_format": "hh-sol-artifact-1",
  "contractName": "Auction",
  "sourceName": "contracts/Auction.sol",
  "abi": [
    {
      "inputs": [
        {
          "internalType": "address",
          "name": "_poseidonAddress",
          "type": "address"
        },
        {
          "internalType": "address",
          "name": "_verifierAddress",
          "type": "address"
        }
      ],
      "stateMutability": "nonpayable",
      "type": "constructor"
    },
    {
      "anonymous": false,
      "inputs": [
        {
          "indexed": false,
          "internalType": "uint256",
          "name": "auctionId",
          "type": "uint256"
        },
        {
          "indexed": false,
          "internalType": "address",
          "name": "seller",
          "type": "address"
        }
      ],
      "name": "AuctionCreated",
      "type": "event"
    },
    {
      "anonymous": false,
      "inputs": [
        {
          "indexed": false,
          "internalType": "uint256",
          "name": "auctionId",
          "type": "uint256"
        },
        {
          "indexed": false,
          "internalType": "address",
          "name": "winner",
          "type": "address"
        }
      ],
      "name": "AuctionEnded",
      "type": "event"
    },
    {
      "anonymous": false,
      "inputs": [
        {
          "indexed": false,
          "internalType": "uint256",
          "name": "auctionId",
          "type": "uint256"
        },
        {
          "indexed": false,
          "internalType": "address",
          "name": "bider",
          "type": "address"
        }
      ],
      "name": "BidSubmitted",
      "type": "event"
    },
    {
      "inputs": [],
      "name": "AuctionCounter",
      "outputs": [
        {
          "internalType": "uint256",
          "name": "",
          "type": "uint256"
        }
      ],
      "stateMutability": "view",
      "type": "function"
    },
    {
      "inputs": [
        {
          "internalType": "uint256",
          "name": "",
          "type": "uint256"
        },
        {
          "internalType": "uint256",
          "name": "",
          "type": "uint256"
        }
      ],
      "name": "bids",
      "outputs": [
        {
          "internalType": "address",
          "name": "bidder",
          "type": "address"
        },
        {
          "internalType": "uint256",
          "name": "commitment",
          "type": "uint256"
        }
      ],
      "stateMutability": "view",
      "type": "function"
    },
    {
      "inputs": [
        {
          "internalType": "string",
          "name": "_name",
          "type": "string"
        },
        {
          "internalType": "string",
          "name": "_description",
          "type": "string"
        },
        {
          "internalType": "uint256",
          "name": "_startTime",
          "type": "uint256"
        },
        {
          "internalType": "uint256",
          "name": "_endTime",
          "type": "uint256"
        },
        {
          "internalType": "uint256",
          "name": "_startingPrice",
          "type": "uint256"
        }
      ],
      "name": "createAuction",
      "outputs": [
        {
          "internalType": "uint256",
          "name": "",
          "type": "uint256"
        }
      ],
      "stateMutability": "nonpayable",
      "type": "function"
    },
    {
      "inputs": [
        {
          "internalType": "uint256",
          "name": "productId",
          "type": "uint256"
        }
      ],
      "name": "getBidsCount",
      "outputs": [
        {
          "internalType": "uint256",
          "name": "",
          "type": "uint256"
        }
      ],
      "stateMutability": "view",
      "type": "function"
    },
    {
      "inputs": [
        {
          "internalType": "uint256",
          "name": "",
          "type": "uint256"
        }
      ],
      "name": "highestBidder",
      "outputs": [
        {
          "internalType": "address",
          "name": "",
          "type": "address"
        }
      ],
      "stateMutability": "view",
      "type": "function"
    },
    {
      "inputs": [],
      "name": "poseidon",
      "outputs": [
        {
          "internalType": "contract Poseidon",
          "name": "",
          "type": "address"
        }
      ],
      "stateMutability": "view",
      "type": "function"
    },
    {
      "inputs": [
        {
          "internalType": "uint256",
          "name": "",
          "type": "uint256"
        }
      ],
      "name": "products",
      "outputs": [
        {
          "internalType": "uint256",
          "name": "auctionID",
          "type": "uint256"
        },
        {
          "internalType": "address",
          "name": "seller",
          "type": "address"
        },
        {
          "internalType": "string",
          "name": "name",
          "type": "string"
        },
        {
          "internalType": "string",
          "name": "description",
          "type": "string"
        },
        {
          "internalType": "uint256",
          "name": "startTime",
          "type": "uint256"
        },
        {
          "internalType": "uint256",
          "name": "endTime",
          "type": "uint256"
        },
        {
          "internalType": "uint256",
          "name": "startingPrice",
          "type": "uint256"
        },
        {
          "internalType": "enum Auction.AuctionStatus",
          "name": "status",
          "type": "uint8"
        }
      ],
      "stateMutability": "view",
      "type": "function"
    },
    {
      "inputs": [
        {
          "internalType": "uint256",
          "name": "_auctionID",
          "type": "uint256"
        },
        {
          "components": [
            {
              "internalType": "uint256",
              "name": "revealedBid",
              "type": "uint256"
            },
            {
              "internalType": "uint256",
              "name": "randomNum",
              "type": "uint256"
            }
          ],
          "internalType": "struct Auction.RevealBid[]",
          "name": "_revealedBids",
          "type": "tuple[]"
        }
      ],
      "name": "revealBids",
      "outputs": [],
      "stateMutability": "nonpayable",
      "type": "function"
    },
    {
      "inputs": [
        {
          "internalType": "uint256",
          "name": "_auctionID",
          "type": "uint256"
        },
        {
          "internalType": "uint256[24]",
          "name": "_proof",
          "type": "uint256[24]"
        },
        {
          "internalType": "uint256[2]",
          "name": "_pubSignals",
          "type": "uint256[2]"
        },
        {
          "internalType": "uint256",
          "name": "_commitment",
          "type": "uint256"
        }
      ],
      "name": "summitBid",
      "outputs": [],
      "stateMutability": "nonpayable",
      "type": "function"
    },
    {
      "inputs": [],
      "name": "verifier",
      "outputs": [
        {
          "internalType": "contract PlonkVerifier",
          "name": "",
          "type": "address"
        }
      ],
      "stateMutability": "view",
      "type": "function"
    }
  ],
  "bytecode": "0x60806040523480156200001157600080fd5b5060405162001ac538038062001ac583398181016040528101906200003791906200012a565b816000806101000a81548173ffffffffffffffffffffffffffffffffffffffff021916908373ffffffffffffffffffffffffffffffffffffffff16021790555080600160006101000a81548173ffffffffffffffffffffffffffffffffffffffff021916908373ffffffffffffffffffffffffffffffffffffffff160217905550505062000171565b600080fd5b600073ffffffffffffffffffffffffffffffffffffffff82169050919050565b6000620000f282620000c5565b9050919050565b6200010481620000e5565b81146200011057600080fd5b50565b6000815190506200012481620000f9565b92915050565b60008060408385031215620001445762000143620000c0565b5b6000620001548582860162000113565b9250506020620001678582860162000113565b9150509250929050565b61194480620001816000396000f3fe608060405234801561001057600080fd5b506004361061009e5760003560e01c80637b3c4baa116100665780637b3c4baa146101885780637c96d8f9146101b9578063c62b919e146101d5578063cf508d65146101f3578063d22f64d71461020f5761009e565b80632b7ac3f3146100a35780634008f9c0146100c1578063451df52e146100f15780635800eafa146101215780637acc0b2014610151575b600080fd5b6100ab61022d565b6040516100b89190610bc9565b60405180910390f35b6100db60048036038101906100d69190610c2e565b610253565b6040516100e89190610c6a565b60405180910390f35b61010b60048036038101906101069190610c2e565b610273565b6040516101189190610ca6565b60405180910390f35b61013b60048036038101906101369190610e07565b6102a6565b6040516101489190610c6a565b60405180910390f35b61016b60048036038101906101669190610c2e565b610451565b60405161017f989796959493929190610fb0565b60405180910390f35b6101a2600480360381019061019d919061103c565b6105d6565b6040516101b092919061107c565b60405180910390f35b6101d360048036038101906101ce91906110ee565b610637565b005b6101dd61080d565b6040516101ea9190611179565b60405180910390f35b61020d600480360381019061020891906111ef565b610831565b005b610217610a44565b6040516102249190610c6a565b60405180910390f35b600160009054906101000a900473ffffffffffffffffffffffffffffffffffffffff1681565b600060046000838152602001908152602001600020805490509050919050565b60056020528060005260406000206000915054906101000a900473ffffffffffffffffffffffffffffffffffffffff1681565b6000600260008154809291906102bb9061127e565b919050555060405180610100016040528060025481526020013373ffffffffffffffffffffffffffffffffffffffff1681526020018781526020018681526020018581526020018481526020018381526020016000600181111561032257610321610f39565b5b8152506003600060025481526020019081526020016000206000820151816000015560208201518160010160006101000a81548173ffffffffffffffffffffffffffffffffffffffff021916908373ffffffffffffffffffffffffffffffffffffffff16021790555060408201518160020190816103a091906114c8565b5060608201518160030190816103b691906114c8565b506080820151816004015560a0820151816005015560c0820151816006015560e08201518160070160006101000a81548160ff02191690836001811115610400576103ff610f39565b5b02179055509050507f5d551e2a2cc977fd8c530317059b4f2d9f504fb82f7dfad736f8d56679bcdfd06002543360405161043b92919061159a565b60405180910390a1600254905095945050505050565b60036020528060005260406000206000915090508060000154908060010160009054906101000a900473ffffffffffffffffffffffffffffffffffffffff16908060020180546104a0906112f5565b80601f01602080910402602001604051908101604052809291908181526020018280546104cc906112f5565b80156105195780601f106104ee57610100808354040283529160200191610519565b820191906000526020600020905b8154815290600101906020018083116104fc57829003601f168201915b50505050509080600301805461052e906112f5565b80601f016020809104026020016040519081016040528092919081815260200182805461055a906112f5565b80156105a75780601f1061057c576101008083540402835291602001916105a7565b820191906000526020600020905b81548152906001019060200180831161058a57829003601f168201915b5050505050908060040154908060050154908060060154908060070160009054906101000a900460ff16905088565b600460205281600052604060002081815481106105f257600080fd5b9060005260206000209060020201600091509150508060000160009054906101000a900473ffffffffffffffffffffffffffffffffffffffff16908060010154905082565b600160009054906101000a900473ffffffffffffffffffffffffffffffffffffffff1673ffffffffffffffffffffffffffffffffffffffff1663c0e9d81c84846040518363ffffffff1660e01b81526004016106949291906115ed565b602060405180830381865afa1580156106b1573d6000803e3d6000fd5b505050506040513d601f19601f820116820180604052508101906106d59190611650565b610714576040517f08c379a000000000000000000000000000000000000000000000000000000000815260040161070b906116c9565b60405180910390fd5b6004600085815260200190815260200160002060405180604001604052803373ffffffffffffffffffffffffffffffffffffffff16815260200183815250908060018154018082558091505060019003906000526020600020906002020160009091909190915060008201518160000160006101000a81548173ffffffffffffffffffffffffffffffffffffffff021916908373ffffffffffffffffffffffffffffffffffffffff1602179055506020820151816001015550507f14f32a2464bd02d81cc866ab8a4ab09360c685fc8156837dcdf398208674d12b84336040516107ff92919061159a565b60405180910390a150505050565b60008054906101000a900473ffffffffffffffffffffffffffffffffffffffff1681565b6004600084815260200190815260200160002080549050828290501461088c576040517f08c379a000000000000000000000000000000000000000000000000000000000815260040161088390611735565b60405180910390fd5b60008060005b60046000878152602001908152602001600020805490508110156109725760006004600088815260200190815260200160002082815481106108d7576108d6611755565b5b9060005260206000209060020201905060008686848181106108fc576108fb611755565b5b90506040020180360381019061091291906117d9565b9050600061092d836001015483600001518460200151610a4a565b905085811115610962578095508260000160009054906101000a900473ffffffffffffffffffffffffffffffffffffffff1694505b5050508080600101915050610892565b50806005600087815260200190815260200160002060006101000a81548173ffffffffffffffffffffffffffffffffffffffff021916908373ffffffffffffffffffffffffffffffffffffffff16021790555060016003600087815260200190815260200160002060070160006101000a81548160ff021916908360018111156109ff576109fe610f39565b5b02179055507fc07789fac136048b605fef8e227ab89b2e33d8afc9ab4817d374197cd81443d68582604051610a3592919061159a565b60405180910390a15050505050565b60025481565b60008060008054906101000a900473ffffffffffffffffffffffffffffffffffffffff1673ffffffffffffffffffffffffffffffffffffffff1663561558fe6040518060400160405280878152602001868152506040518263ffffffff1660e01b8152600401610aba91906118b1565b602060405180830381865afa158015610ad7573d6000803e3d6000fd5b505050506040513d601f19601f82011682018060405250810190610afb91906118e1565b9050848114610b3f576040517f08c379a0000000000000000000000000000000000000000000000000000000008152600401610b36906116c9565b60405180910390fd5b839150509392505050565b600073ffffffffffffffffffffffffffffffffffffffff82169050919050565b6000819050919050565b6000610b8f610b8a610b8584610b4a565b610b6a565b610b4a565b9050919050565b6000610ba182610b74565b9050919050565b6000610bb382610b96565b9050919050565b610bc381610ba8565b82525050565b6000602082019050610bde6000830184610bba565b92915050565b6000604051905090565b600080fd5b600080fd5b6000819050919050565b610c0b81610bf8565b8114610c1657600080fd5b50565b600081359050610c2881610c02565b92915050565b600060208284031215610c4457610c43610bee565b5b6000610c5284828501610c19565b91505092915050565b610c6481610bf8565b82525050565b6000602082019050610c7f6000830184610c5b565b92915050565b6000610c9082610b4a565b9050919050565b610ca081610c85565b82525050565b6000602082019050610cbb6000830184610c97565b92915050565b600080fd5b600080fd5b6000601f19601f8301169050919050565b7f4e487b7100000000000000000000000000000000000000000000000000000000600052604160045260246000fd5b610d1482610ccb565b810181811067ffffffffffffffff82111715610d3357610d32610cdc565b5b80604052505050565b6000610d46610be4565b9050610d528282610d0b565b919050565b600067ffffffffffffffff821115610d7257610d71610cdc565b5b610d7b82610ccb565b9050602081019050919050565b82818337600083830152505050565b6000610daa610da584610d57565b610d3c565b905082815260208101848484011115610dc657610dc5610cc6565b5b610dd1848285610d88565b509392505050565b600082601f830112610dee57610ded610cc1565b5b8135610dfe848260208601610d97565b91505092915050565b600080600080600060a08688031215610e2357610e22610bee565b5b600086013567ffffffffffffffff811115610e4157610e40610bf3565b5b610e4d88828901610dd9565b955050602086013567ffffffffffffffff811115610e6e57610e6d610bf3565b5b610e7a88828901610dd9565b9450506040610e8b88828901610c19565b9350506060610e9c88828901610c19565b9250506080610ead88828901610c19565b9150509295509295909350565b600081519050919050565b600082825260208201905092915050565b60005b83811015610ef4578082015181840152602081019050610ed9565b60008484015250505050565b6000610f0b82610eba565b610f158185610ec5565b9350610f25818560208601610ed6565b610f2e81610ccb565b840191505092915050565b7f4e487b7100000000000000000000000000000000000000000000000000000000600052602160045260246000fd5b60028110610f7957610f78610f39565b5b50565b6000819050610f8a82610f68565b919050565b6000610f9a82610f7c565b9050919050565b610faa81610f8f565b82525050565b600061010082019050610fc6600083018b610c5b565b610fd3602083018a610c97565b8181036040830152610fe58189610f00565b90508181036060830152610ff98188610f00565b90506110086080830187610c5b565b61101560a0830186610c5b565b61102260c0830185610c5b565b61102f60e0830184610fa1565b9998505050505050505050565b6000806040838503121561105357611052610bee565b5b600061106185828601610c19565b925050602061107285828601610c19565b9150509250929050565b60006040820190506110916000830185610c97565b61109e6020830184610c5b565b9392505050565b600080fd5b6000819050826020601802820111156110c6576110c56110a5565b5b92915050565b6000819050826020600202820111156110e8576110e76110a5565b5b92915050565b600080600080610380858703121561110957611108610bee565b5b600061111787828801610c19565b9450506020611128878288016110aa565b93505061032061113a878288016110cc565b92505061036061114c87828801610c19565b91505092959194509250565b600061116382610b96565b9050919050565b61117381611158565b82525050565b600060208201905061118e600083018461116a565b92915050565b600080fd5b60008083601f8401126111af576111ae610cc1565b5b8235905067ffffffffffffffff8111156111cc576111cb611194565b5b6020830191508360408202830111156111e8576111e76110a5565b5b9250929050565b60008060006040848603121561120857611207610bee565b5b600061121686828701610c19565b935050602084013567ffffffffffffffff81111561123757611236610bf3565b5b61124386828701611199565b92509250509250925092565b7f4e487b7100000000000000000000000000000000000000000000000000000000600052601160045260246000fd5b600061128982610bf8565b91507fffffffffffffffffffffffffffffffffffffffffffffffffffffffffffffffff82036112bb576112ba61124f565b5b600182019050919050565b7f4e487b7100000000000000000000000000000000000000000000000000000000600052602260045260246000fd5b6000600282049050600182168061130d57607f821691505b6020821081036113205761131f6112c6565b5b50919050565b60008190508160005260206000209050919050565b60006020601f8301049050919050565b600082821b905092915050565b6000600883026113887fffffffffffffffffffffffffffffffffffffffffffffffffffffffffffffffff8261134b565b611392868361134b565b95508019841693508086168417925050509392505050565b60006113c56113c06113bb84610bf8565b610b6a565b610bf8565b9050919050565b6000819050919050565b6113df836113aa565b6113f36113eb826113cc565b848454611358565b825550505050565b600090565b6114086113fb565b6114138184846113d6565b505050565b5b818110156114375761142c600082611400565b600181019050611419565b5050565b601f82111561147c5761144d81611326565b6114568461133b565b81016020851015611465578190505b6114796114718561133b565b830182611418565b50505b505050565b600082821c905092915050565b600061149f60001984600802611481565b1980831691505092915050565b60006114b8838361148e565b9150826002028217905092915050565b6114d182610eba565b67ffffffffffffffff8111156114ea576114e9610cdc565b5b6114f482546112f5565b6114ff82828561143b565b600060209050601f8311600181146115325760008415611520578287015190505b61152a85826114ac565b865550611592565b601f19841661154086611326565b60005b8281101561156857848901518255600182019150602085019450602081019050611543565b868310156115855784890151611581601f89168261148e565b8355505b6001600288020188555050505b505050505050565b60006040820190506115af6000830185610c5b565b6115bc6020830184610c97565b9392505050565b82818337505050565b6115d961030083836115c3565b5050565b6115e9604083836115c3565b5050565b60006103408201905061160360008301856115cc565b6116116103008301846115dd565b9392505050565b60008115159050919050565b61162d81611618565b811461163857600080fd5b50565b60008151905061164a81611624565b92915050565b60006020828403121561166657611665610bee565b5b60006116748482850161163b565b91505092915050565b7f496e7661696c6400000000000000000000000000000000000000000000000000600082015250565b60006116b3600783610ec5565b91506116be8261167d565b602082019050919050565b600060208201905081810360008301526116e2816116a6565b9050919050565b7f52657665616c2064617461206d69736d61746368000000000000000000000000600082015250565b600061171f601483610ec5565b915061172a826116e9565b602082019050919050565b6000602082019050818103600083015261174e81611712565b9050919050565b7f4e487b7100000000000000000000000000000000000000000000000000000000600052603260045260246000fd5b600080fd5b60006040828403121561179f5761179e611784565b5b6117a96040610d3c565b905060006117b984828501610c19565b60008301525060206117cd84828501610c19565b60208301525092915050565b6000604082840312156117ef576117ee610bee565b5b60006117fd84828501611789565b91505092915050565b600060029050919050565b600081905092915050565b6000819050919050565b61182f81610bf8565b82525050565b60006118418383611826565b60208301905092915050565b6000602082019050919050565b61186381611806565b61186d8184611811565b92506118788261181c565b8060005b838110156118a95781516118908782611835565b965061189b8361184d565b92505060018101905061187c565b505050505050565b60006040820190506118c6600083018461185a565b92915050565b6000815190506118db81610c02565b92915050565b6000602082840312156118f7576118f6610bee565b5b6000611905848285016118cc565b9150509291505056fea2646970667358221220561214019241a17a15ff005a0ec4db9009ff77ccbf142bbb13ad2490419e8b5a64736f6c63430008180033",
  "linkReferences": {},
  "deployedLinkReferences": {}
}